{
	"data": {
		"bytecode": {
			"linkReferences": {},
			"object": "6080604052348015600e575f5ffd5b50607180601a5f395ff3fe608060405260043610601b575f3560e01c8063b60d428814601f575b5f5ffd5b60256027565b005b670de0b6b3a764000034116039575f5ffd5b56fea2646970667358221220bcd5ad6b4dc8c633cf877671b660c6aef142bf5502fc89c73dbf42c5e1be52fb64736f6c634300081e0033",
			"opcodes": "PUSH1 0x80 PUSH1 0x40 MSTORE CALLVALUE DUP1 ISZERO PUSH1 0xE JUMPI PUSH0 PUSH0 REVERT JUMPDEST POP PUSH1 0x71 DUP1 PUSH1 0x1A PUSH0 CODECOPY PUSH0 RETURN INVALID PUSH1 0x80 PUSH1 0x40 MSTORE PUSH1 0x4 CALLDATASIZE LT PUSH1 0x1B JUMPI PUSH0 CALLDATALOAD PUSH1 0xE0 SHR DUP1 PUSH4 0xB60D4288 EQ PUSH1 0x1F JUMPI JUMPDEST PUSH0 PUSH0 REVERT JUMPDEST PUSH1 0x25 PUSH1 0x27 JUMP JUMPDEST STOP JUMPDEST PUSH8 0xDE0B6B3A7640000 CALLVALUE GT PUSH1 0x39 JUMPI PUSH0 PUSH0 REVERT JUMPDEST JUMP INVALID LOG2 PUSH5 0x6970667358 0x22 SLT KECCAK256 0xBC 0xD5 0xAD PUSH12 0x4DC8C633CF877671B660C6AE CALL TIMESTAMP 0xBF SSTORE MUL 0xFC DUP10 0xC7 RETURNDATASIZE 0xBF TIMESTAMP 0xC5 RJUMPI 0xBE52 EXTSTATICCALL PUSH5 0x736F6C6343 STOP ADDMOD 0x1E STOP CALLER "
		},
		"gasEstimates": {
			"creation": {
				"codeDepositCost": "22600",
				"executionCost": "73",
				"totalCost": "22673"
			},
			"external": {
				"fund()": "119"
			}
		},
		"methodIdentifiers": {
			"fund()": "b60d4288"
		}
	},
	"abi": [
		{
			"inputs": [],
			"name": "fund",
			"outputs": [],
			"stateMutability": "payable",
			"type": "function"
		}
	]
}